:020000040800F2
:1050000080290020457F0008DD7D0008DF7D000845
:10501000E17D0008E37D0008E57D00080000000058
:105020000000000000000000000000007B75000888
:10503000E77D00080000000035750008E7740008EF
:10504000717F0008757F0008797F00087D7F000868
:10505000817F0008857F0008E97D00088D7F0008BA
:10506000917F0008957F0008997F00089D7F0008C8
:10507000A17F0008A57F0008A97F0008AD7F000878
:10508000B17F0008B57F0008B97F0008BD7F000828
:10509000C17F0008C57F0008C97F0008EB7D0008BC
:1050A000D17F0008D57F0008D97F0008DD7F000888
:1050B000D5580008E57F0008E97F0008ED7F00086B
:1050C000F17F0008F57F0008F97F0008FD7F0008E8
:1050D000018000081B6A0008098000080D80000894
:1050E00011800008158000081980000880B500F0C4
:1050F000E7FA00F02AFBDFF8F4134FF0006000F04D
:105100008BFB4FF4A06000F055FB042000F08AFBFD
:1051100000F0A6FBDFF8D80300F036FC0FF22040C9
:1051200000F058FC0FF2384000F054FCBDE8044099
:105130000121012000F0B1BCF8B50121DFF8B40372
:10514000DFF8B443DFF8B453DFF8B46300F04FFD89
:105150000FF2344000F03EFC01214FF4004000F01B
:1051600046FD0FF2504000F035FC204600F084FD73
:105170000FF2684000F02EFC6168002088476168EB
:10518000DFF8804301208847DFF87C0300F00FFE42
:10519000DFF8780300F048FEDFF8740300F083FEC8
:1051A000204600F098FD284600F0BAFD304600F099
:1051B000DAFD6168DFF85C430020884769680020F9
:1051C000884771680020884700F0AEF80FF22C4045
:1051D00000F000FC00F018F900F086FE0020DFF877
:1051E000381320F00302001D8B58A350B0F5806FD8
:1051F000F7DB00F083FE2078FF281CBF6178FF29D1
:1052000042D0A078FF281CBFE178FF293CD0C34DD5
:105210000FF210402C60202100F0E4FB28680B21E5
:105220001C3000F0DFFBB0A7384600F0D3FB202194
:105230000FF2144000F0D6FB04F21C460B2130465E
:1052400000F0D0FB384600F0C5FB286800F11C01D7
:105250000B22304600F0D6FE90B10FF2104000F065
:10526000B9FB28680B2231461C3000F00FFF4FF4C9
:105270008272214604F5806000F008FF00F03EF8DD
:105280000FF2144000F0A6FB00F043FF00F04FFFC8
:10529000BDE8F24040F2DC5000F06CBB2DE9FC416F
:1052A0000C4615461E4638BB0027DFF874820DE019
:1052B000404600F072FE05281CBF342000F06AFE54
:1052C000381900F023FE07F58067BFB2B742EFDB65
:1052D00000270FE0404600F060FE05281CBF342088
:1052E00000F058FE27F003002958381900F02BFE73
:1052F0003F1DBFB2B742EDDBBDE8F38110B500F052
:10530000F3FD844C4FF4806204F58061204600F088
:10531000BDFE4FF4806322467F490020FFF7BEFFA9
:10532000BDE8104000F0EABD10B588B001214FF48F
:10533000006000F0B2FB4FF6FF700022ADF81800DD
:10534000ADF81420ADF81A20ADF8162005A9754C5B
:10535000204600F0C7FF60200121ADF80400ADF841
:10536000061000200421ADF80C00ADF80810ADF8CF
:105370000E00ADF80A0001A9204600F0FAFF08214E
:10538000204601F006F901A9204601F032F8082173
:10539000204601F005F901A9204601F062F8082134
:1053A000204601F005F901A9204601F093F80821F3
:1053B000204601F0FDF80121204601F0DEF8012130
:1053C000204601F0BDF80121204601F0C3F801217B
:1053D000042000F062FB4FF47060ADF80000032180
:1053E00018208DF802108DF8030069464E4800F031
:1053F0008BFB08B010BDC0EB004064214B4AFFE7B7
:1054000090FBF1F01080704718B591B00121012098
:1054100000F03AFB01214FF4017000F03EFB102038
:105420000021ADF800008DF8031069463E48404C5D
:1054300000F06AFB204601F0F1F83E483E49069034
:105440000791002008900A900B9001214FF4807082
:1054500009910C904FF4806120200D910E904FF433
:10546000005100200F91109006A9204601F03EF94E
:105470000121204601F055F901218DF808108DF821
:10548000091000204FF46021039101900121049044
:105490008DF8141001A9294C204601F06BF9052361
:1054A00001220421204601F0B0F90121204601F03B
:1054B00088F90121204601F07BF9204601F08AF9A4
:1054C000204601F08CF90028FAD1204601F08AF933
:1054D000204601F08CF90028FAD10121204601F084
:1054E0008BF912B010BD00000D0A0000005000083A
:1054F0005424002000023000102500202825002020
:10550000342500201C250020402500204C250020AB
:10551000582500202C140020004800087025002089
:10552000A0860100002C014000080140342C0140FD
:10553000080002404C240140742500200024014052
:105540005B53595354454D2044454255475D3A20DD
:1055500046572055736572204D6F6465210D0A0012
:105560005B53595354454D2044454255475D3A20BD
:1055700055534152543120496E6974205375636309
:10558000657373210D0A00005B53595354454D2038
:1055900044454255475D3A204750494F204A5441BF
:1055A000472044697361626C6520646F6E65210DEC
:1055B0000A0000005B53595354454D204445425561
:1055C000475D3A20504430205044312052656D618F
:1055D0007020646F6E65210D0A0000005B53595303
:1055E00054454D2044454255475D3A204C454420A2
:1055F000646F6E6521200D0A000000005B53595353
:1056000054454D2044454255475D3A2050574D2062
:10561000496E6974207375636365737321200D0A85
:10562000000000005B53595354454D2044454255FA
:10563000475D3A204F4C44204657205665727369A7
:105640006F6E3A20000000005B53595354454D20C3
:1056500044454255475D3A204E455720465720560F
:10566000657273696F6E3A20000000005B535953F6
:1056700054454D2044454255475D3A205772697460
:1056800065204E65772046572056657273696F6EA8
:1056900021200D0A000000005B53595354454D2052
:1056A00044454255475D3A20434845434B205645C3
:1056B0005253494F4E20444F4E4521200D0A0000C1
:1056C0003249086840F0010008604A6830480240EA
:1056D0004A600B682F4803400B60086820F4802064
:1056E00008604FF41F004A6822F4FE024A60886096
:1056F0002948026842F00102026048684860486830
:1057000040F48060486048684860486820F474103D
:105710004860486840F4201048600A6842F080728F
:105720000A6008688201FCD54868800880004860EB
:10573000486840F002004860486800F00C00082803
:10574000FAD116481649016070471649086800F0FA
:105750000C0008280FD108680B68C0F38342921C24
:10576000D80358BF104804D50B6898034CBF0E48A7
:105770000E48424300E00D4A0D4802610968C1F33A
:105780000311415CCA4002617047000000100240F2
:105790000000FFF8FFFFF6FE0020024008ED00E0E9
:1057A000005000080410024000093D0000127A0079
:1057B000441900202249234A08431060704770B4FE
:1057C0000378C1781C460122E1B11E4B1B68457865
:1057D00003F4E063C3F5E0631B0AC3F104018D40E9
:1057E00081780F26DE4031400D43174B2D011D55AA
:1057F0000178164B01F01F008240490943F821202F
:1058000070BC704703F01F03114802FA03F36409E8
:1058100040F8243070BC70470E4A114008430E49CE
:105820000860704704280D4904D1086840F004005E
:10583000086070470A6822F004020A60704700009E
:105840000000FA050CED00E000E400E000E100E0FB
:1058500080E100E080FFFF1F08ED00E010E000E0C5
:1058600080B584B00121012000F020F94FF0804084
:1058700000F064FC01A800F05AFE2F20ADF80400EF
:1058800063210020ADF80810ADF80A00ADF806005D
:105890008DF80C0001A94FF0804000F023FD01229B
:1058A00001214FF0804000F060FE00218DF80210D1
:1058B0008DF801101C208DF8000001218DF80310D7
:1058C0006846FFF77CFF01214FF0804000F038FE72
:1058D00005B000BD10B501214FF0804000F06FFE13
:1058E000012834D100214FF080408184C046254CEE
:1058F0006068401C60600A212069401C206160686B
:10590000B0FBF1F101EB8102B0EB42000FD1A068D6
:10591000401CA0604FF47A72A068B0FBF2F24FF422
:105920007A7101FB120010B9E068401CE0600121AF
:105930004FF0804000F04DFE208840F2E932904266
:1059400003DB00F0B2FF002000E0401C208010BD0F
:1059500038B50C4804694FF08040808CC0466425FF
:1059600005FB0404204632BD0648806870470548A0
:10597000C068704703498A6880188A689042FCD2E0
:1059800070470000D02400200C4901600C494160A0
:105990000C4981600C49C1600C4901610C494161AD
:1059A0000FF26D0181620FF2590101620FF23501B0
:1059B00081610FF22101C16100680047056900089B
:1059C000DB690008E1690008E5690008F169000881
:1059D000F969000810B5044600F078FF81B220464E
:1059E000BDE8104038B50C00054605D015F8010B90
:1059F00001F006F8641EF9D1BDE8314000F0F0BFB7
:105A000080B500F0FDFFBDE8014000F0E9BF0000F7
:105A100000F0FABF10B4334A116801F00C010829F4
:105A20000FD111681468C1F383439B1CE10358BF75
:105A30002D4904D51468A1034CBF2B492B494B4376
:105A400000E02A4B03602A4913680468C3F3031378
:105A5000CB5CDC40446013684468C3F30223CB5C36
:105A6000DC40846013684468C3F3C223CB5CDC4031
:105A7000C4601268C368C2F381321144097CB3FB6D
:105A8000F1F1016110BC70471A4A0029116814BF76
:105A9000084321EA000010607047174A0029116886
:105AA00014BF084321EA000010607047134A002920
:105AB000116814BF084321EA000010607047104AC3
:105AC0000029116814BF084321EA000010607047E4
:105AD0000C4A0029116814BF084321EA0000106035
:105AE000704700000410024000093D0000127A00D7
:105AF0003019002014100240181002401C100240FF
:105B00000C100240101002402DE9F041CA78002428
:105B100002F00F03D20644BF8A7813430A88D5B235
:105B20001DB3056801260F2706FA04FC0CEA020ED5
:105B3000E64516D14FEA840E07FA0EF825EA080565
:105B400003FA0EFE4EEA050591F803E0BEF1280FB8
:105B500008BFC0F814C004D0BEF1480F08BFC0F899
:105B600010C0641C082CDFD30560B2F5807F27DBF2
:105B70004568002401260F2704F1080C06FA0CFCE6
:105B80000CEA020EE64517D14FEA840E07FA0EF82A
:105B900025EA080503FA0EFE4EEA050591F803E032
:105BA000BEF1280F08BFC0F814C091F803E0BEF1A1
:105BB000480F08BFC0F810C0641C082CDCD3456037
:105BC000BDE8F0810246002092680A4218BF012019
:105BD000704702460020D2680A4218BF0120704771
:105BE00081B0002A14BF0161416101B0704778B4EF
:105BF0001F4A00284CBF9369136800F44016B6F59D
:105C0000401FC0F3034485B206D1146824F07064C9
:105C100023F0706314600DE0C60204D5032606FA73
:105C200004F4A34304E0440D260105FA06F6B34349
:105C300043F0706319B1440D21018D402B430028BE
:105C40004CBF9361136071BC704730B4094B8A003C
:105C500021F0030102F00C025C580F259540AC4383
:105C60005C5090405D582843585030BC704700004D
:105C700004000140080001401CB504460121102029
:105C8000FFF70BFF03204FF4005110228DF80200A4
:105C9000ADF800108DF8032069469048FFF734FFF7
:105CA0000FF2110020600FF2190060600FF21D006A
:105CB000A06013BD4FF400518848FFF783BF000078
:105CC00002464FF400518548FFF78ABF4FF4005158
:105CD0008248FFF77EBF1CB5044601210820FFF76C
:105CE000DCFE0320082110228DF80200ADF8001020
:105CF0008DF8032069467A48FFF706FF0FF20D0082
:105D000060600FF21500A06013BD0000024608217C
:105D10007348FFF765BF000008217148FFF759BFBE
:105D20001CB5044601210420FFF7B7FE03204FF401
:105D3000004110228DF80200ADF800108DF803200C
:105D400069466848FFF7E0FE0FF20D0060600FF251
:105D50001100A06013BD000002464FF400411DE099
:105D60004FF4004120E01CB5044601210420FFF758
:105D700094FE032010228DF802008DF80320ADF868
:105D8000002069465748FFF7BFFE0FF20D00606024
:105D90000FF21100A06013BD024610215148FFF719
:105DA0001FBF00005FF010014E48FFF712BF10B593
:105DB000044684B001210820FFF76FFE0320202154
:105DC00048228DF80600ADF804108DF8072001A9CF
:105DD0004348FFF799FE0FF24D0020600521012096
:105DE000FFF733FF2020029000218DF80C100C20CB
:105DF0008DF80D0001218DF80E1002A800F050FE64
:105E000017208DF8000000218DF8011002208DF878
:105E1000020001218DF803106846FFF7D0FC04B0A2
:105E200010BD000020213BE038B5044684B00121BC
:105E30000820FFF732FE032048228DF806008DF877
:105E400007204FF48075ADF8045001A92448FFF7EE
:105E50005BFE0FF24900206008210120FFF7F5FEEC
:105E600000208DF80C000C2101208DF80E008DF81B
:105E70000D10029502A800F013FE17208DF8000007
:105E800000218DF8011002208DF8020001218DF80B
:105E900003106846FFF793FC05B030BD4FF48071E6
:105EA0000F48FFF78FBE1CB5044601210420FFF701
:105EB000F4FD0320402148228DF80200ADF80010C7
:105EC0008DF8032069460748FFF71EFE0FF2050014
:105ED000206013BD40210348FFF774BE001001404D
:105EE000000C014000080140FFE7DFF80401DFF883
:105EF00004110160DFF8001101607047FFE7DFF86F
:105F0000FC00016841F080010160704738B504462B
:105F10004FF4302000F041F8042813D1DFF8DC50B2
:105F2000286840F0020028606C604FF43020296837
:105F300041F04001296000F030F82A6841F6FD7117
:105F40000A402A6032BDF8B50D4600210446009192
:105F50004FF4005000F021F804281AD1DFF89C60BB
:105F6000306840F00100306025804FF4005000F0B0
:105F700014F8042841F6FE7708D1A41C00942D0CD7
:105F8000009805804FF4005000F007F831680F408A
:105F90003760F2BD1A490860704710B4184A136898
:105FA0000421DC0748BF012113D413685C0748BFF4
:105FB00002210ED41368DC060BD5032109E0136817
:105FC000DC0605D5032103E013685C07F7D5022141
:105FD000401E012906D130B113680421DC07F3D536
:105FE0000121F5E700B90521FFE710BC084670471D
:105FF0000420024023016745AB89EFCD1020024009
:106000000C2002400300002013F0030F09D0521EA1
:1060100022BF13F8010B11F801CBB0EB0C00F3D049
:10602000704711F0030F14D1121F22BF53F8040B55
:1060300051F804CB6045F7D0121D0AD200BA9CFA81
:106040008CFCB0EB0C0038BF6FF0000088BF012063
:106050007047521E22BF13F8010B11F801CBB0EBB1
:106060000C00F6D0521C08BF1046704762B38B0775
:1060700008D0521E11F8013B00F8013B00F02480CB
:106080008B07F6D1830740F0208000BF103A07D37A
:1060900030B4B1E83810103AA0E83810F9D230BC6A
:1060A000530724BFB1E80810A0E8081044BF51F816
:1060B000043B40F8043BD20724BF31F8022B20F800
:1060C000022B44BF0B7803707047121F17D35B007D
:1060D00009D151F8043B20F8023B1B0C121F20F899
:1060E000023BF6D20BE051F8043B00F8013B1B0ADF
:1060F00020F8023B1B0C121F00F8013BF3D238BF03
:10610000121D521E24BF11F8013B00F8013BF8D8C4
:10611000704780B545F2555000F0BEFB042000F0FA
:10612000BEFBBDE802404FF4FA6000F0BBBB80B597
:1061300000F0C0FBBDE8014000F0B7BB80B5DFF860
:106140009C14884208D101214FF40060FFF7B7FC8E
:1061500000214FF40060C0E0B0F1804F06D1012172
:106160000120FFF7B5FC002101208CE0DFF870145E
:10617000884206D101210220FFF7AAFC002102205B
:1061800081E0DFF86014884206D101210420FFF786
:106190009FFC0021042076E0DFF84C14884206D1F1
:1061A00001210820FFF794FC002108206BE0DFF8B4
:1061B0003C14884206D101211020FFF789FC002100
:1061C000102060E0DFF82814884206D10121202049
:1061D000FFF77EFC0021202055E0DFF818148842EC
:1061E00008D101214FF40050FFF769FC00214FF462
:1061F000005072E0DFF80014884208D101214FF40A
:106200000020FFF75CFC00214FF4002065E0DFF880
:10621000EC13884208D101214FF48010FFF74FFCA6
:1062200000214FF4801058E0DFF8D413884208D1E1
:1062300001214FF40010FFF742FC00214FF4001041
:106240004BE0DFF8C013884206D101214020FFF760
:106250003FFC0021402016E0DFF8AC13884206D155
:1062600001218020FFF734FC002180200BE0DFF8C3
:106270009C1388420BD101214FF48070FFF728FC5A
:1062800000214FF48070BDE80440FFF721BCDFF827
:106290008013884208D101214FF48030FFF70FFCB2
:1062A00000214FF4803018E0DFF86813884208D1ED
:1062B00001214FF40030FFF702FC00214FF40030C1
:1062C0000BE0DFF8541388420BD101214FF48020FA
:1062D000FFF7F5FB00214FF48020BDE80440FFF7F5
:1062E000EEBB01BD18B4DFF8F432048898421CBF3D
:1062F000DFF8002390420ED0B0F1804F1CBFDFF8D2
:10630000E022904207D0DFF8DC2290421CBFDFF889
:10631000D822904204D14FF68F7214404A88144319
:10632000DFF8C82290421CBFDFF8C422904204D09C
:106330004FF6FF421440CA881443048098428A886A
:1063400082850A8802851CBFDFF8A82290420AD005
:10635000DFF8BC2290421FBFDFF8B8229042DFF87E
:10636000B822904201D1097A01860121818211BCB3
:10637000704770B4038C4FF6FE72134003844FF6DF
:106380008C72068C8488058B15400A8815434FF65D
:10639000FD7216400A8916434A881643DFF83C22EC
:1063A00090421CBFDFF84C2290420AD0DFF86022F6
:1063B00090421FBFDFF85C229042DFF85C229042DF
:1063C00010D14FF6F7724B8916401E434FF6FB7201
:1063D00016408A8816434FF6FF4214408A891443B8
:1063E000CA89144384800583C9888186068470BC69
:1063F000704770B4038C4FF6EF721340038448F675
:10640000FF42058C8388048B0E8814404FF6DF72A0
:1064100044EA062415400E894A88164345EA0615C3
:10642000DFF8B861B0421CBFDFF8C861B04213D1D9
:106430004FF67F724E89154045EA06154FF6BF723A
:106440008E8815404FF2FF3245EA061513408E89BB
:10645000CA89164343EA860383800483C988018777
:1064600035E070B4038C4FF6FF62134003844FF69F
:106470008C72058C8388848B0E8914400A8814439F
:106480004FF6FF5215404A88164345EA0625DFF8C5
:106490004C61B0421CBFDFF85C61B04213D14FF2D7
:1064A000FF724E89154045EA06254FF6FF328E8869
:1064B00015404CF6FF7245EA062513408E89CA89BD
:1064C000164343EA061383808483C9888187058441
:1064D00070BC704770B4038C4EF6FF721340038497
:1064E00048F6FF42038C8488858B0E8815404DF654
:1064F000FF7245EA062513400E894A88164343EA8F
:106500000633DFF8D860B0421CBFDFF8E860B04265
:1065100005D14BF6FF7214408A8944EA82148480C4
:106520008583C988A0F84010038470BC70474FF67B
:10653000FF71818000210180C1804180017270471C
:1065400021B1028842F001020280704703884FF6B1
:10655000FE711BE00029B0F8441014BF41F4004163
:10656000C1F30E01A0F844107047002A828914BFBD
:10657000114322EA01018181704721B1028842F072
:1065800080020280704703884FF67F710B400380C2
:106590007047038B4FF6F77213401943018370471E
:1065A000038B4FF2FF72134043EA012303837047CA
:1065B000838B4FF6F772134019438183704702466D
:1065C0000020138A92890A400B421CBF002A012036
:1065D000704700BFC943018270470000002C014092
:1065E0000004004000080040000C00400010004083
:1065F0000014004000340140004C014000500140B4
:106600000054014000180040001C004000200040E1
:1066100000400140004401400048014002684FF63C
:10662000FE710A4002600021016041608160C1602A
:106630004249884204D14248016841F00F0153E0C9
:10664000404A904204D13E48016841F0F0014BE0DD
:106650003D4A904204D13A48016841F4706143E0F8
:106660003A4A904204D13648016841F470413BE017
:10667000374A904208BF324833D0364A904204D15C
:106680002F48016841F470012EE0334A904204D152
:106690002B48016841F0706126E0304A904204D1F5
:1066A0002F48016841F00F011EE02E4A904204D1AC
:1066B0002B48016841F0F00116E02B4A904204D1CA
:1066C0002748016841F470610EE0284A904204D1E5
:1066D0002348016841F4704106E0254A904204D104
:1066E0001F48016841F470210160704703688A689F
:1066F0006FF30E1313430A6A13430A6913434A697B
:1067000013438A691343CA6913434A6A13438A6A63
:1067100013430360CA6842600A6882604968C160C6
:10672000704721B1026842F00102026070470368BD
:106730004FF6FE710B4003607047000008000240F6
:10674000040002401C0002403000024044000240AD
:10675000580002406C0002408000024008040240E1
:10676000040402401C04024030040240440402407D
:10677000580402404368464A13400A6813430A79A2
:1067800043EA02234360434A83681340CA681343C1
:106790008A6813434A7943EA42038360C26A097CE8
:1067A0004B1E22F47002DBB242EA0352C26270470F
:1067B0000029816812BF41F0010149084900816048
:1067C00070470029816814BF41F4807121F4807101
:1067D00081607047816841F008018160704780687E
:1067E000C00806E0816841F004018160704780685C
:1067F000800800F0010070470029816814BF41F44F
:10680000A00121F4A0018160704778B407240A290F
:106810000BDBA1F10A0505EB4505C668AC4026EA8D
:106820000404AB402343C36008E001EB4105066963
:10683000AC4026EA0404AB40234303611F24072A2B
:106840000BDA521E02EB8202436B944023EA0404EB
:1068500091402143416371BC70470C2A0BDCD21F6D
:1068600002EB8202036B944023EA0404914021432B
:10687000016371BC70470D3A02EB8202C36A944017
:1068800023EA040491402143C16271BC70470000B7
:10689000FFFEF0FFFDF7F1FF094908607047094965
:1068A0000860704708490860704705494AF6AA2001
:1068B0000860704702494CF6CC4008607047000001
:1068C00000300040043000400830004000F1010377
:1068D000810704D010F8011B89B18107FAD1026841
:1068E000B2F10131914311F0803F04BF50F8042F01
:1068F000F6E710F8011B11B110F8011BFBE7C01AF5
:10690000704700001CB501214FF48040FFF7C5F827
:1069100001210420FFF7C1F801210420FFF7BDF891
:106920004FF48060ADF80400042103208DF80710B7
:106930008DF8060001A9524C2046FFF7E5F84FF408
:106940000070ADF80400032118208DF806108DF8B2
:10695000070001A92046FFF7D7F84A4C204600F06F
:10696000E7F84949204600F027F90121204600F0C8
:106970007BF9012240F22771204600F07FF92520A3
:106980008DF8000001218DF801108DF802108DF8AE
:1069900003106846FEF713FF012240F225512046FE
:1069A00000F06CF925208DF80000012102208DF8FF
:1069B00002008DF801108DF803106846FEF7FFFE07
:1069C0004FF448723149324800F09BF94FF4C872D5
:1069D0003049314800F095F913BD2A4800F0A8B8B5
:1069E000012200E0002240F22771264800F046B95B
:1069F000012240F22551F8E7002240F22551F4E748
:106A00000146234800F08BB980B50146224800F0CA
:106A10009BF9401E8041C00F02BD70B5194D40F278
:106A20002551284600F04FF901281C4C09D1284671
:106A300000F045F9207021781748BDE8704000F05B
:106A40006EB940F227763146284600F03CF901281D
:106A500011D121460E4800F077F928B9217828464F
:106A6000BDE8704000F027B931462846BDE87040C7
:106A7000002200F003B9284600F021F9207070BD13
:106A80000008014000380140000000205C1900208F
:106A9000F424002064200020E42400205A1900205F
:106AA00030B404688179204AE44329B315682C4046
:106AB0001460546801688C43546004791419256883
:106AC00001680D432560946801688C439460D46824
:106AD00001688C43D46041790468102908D1916819
:106AE0000C439460D16800680143D16030BC7047AA
:106AF00052181068044303E000791218106804402B
:106B0000146030BC7047084B19685B69024600206E
:106B1000114013421CBF00290120704700BF0349E8
:106B200008607047000000000004014014040140A8
:106B300080B5484988420BD101214FF48040FEF7CF
:106B4000BEFFBDE8044000214FF48040FEF7B7BF10
:106B50004149884208D101214FF40030FEF7B8FFC7
:106B600000214FF4003022E03C49884208D1012145
:106B70004FF48020FEF7ACFF00214FF4802016E098
:106B80003749884208D101214FF40020FEF7A0FFC9
:106B900000214FF400200AE0324988420BD1012144
:106BA0004FF48010FEF794FF00214FF48010BDE8F1
:106BB0000440FEF78DBF01BD30B5044685B00D46DB
:106BC000218A4CF6FF700140E888014321824EF68D
:106BD000F310A1890140A8880143288901436889ED
:106BE0000143A1814FF6FF40A18A0140A8890143DA
:106BF000A1826846FEF70EFF16492A688C420CBF38
:106C00000399029919204143A08903044CBF520003
:106C10009200B1FBF2F16422B1FBF2F2120113090E
:106C2000642000FB1311A089030407D5C900323189
:106C30006420B1FBF0F000F0070006E009013231FA
:106C40006420B1FBF0F000F00F000243228105B098
:106C500030BD0000003801400044004000480040C2
:106C6000004C00400050004021B1818941F40051A6
:106C70008181704782894DF6FF7119E00B065B0F29
:106C80004FF0010C01F01F01012B81B00CFA01F152
:106C900008BF0C3003D0022B0CBF10301430002A78
:106CA000026814BF114322EA0101016001B070477C
:106CB0000A4082817047C1F3080181807047808853
:106CC000C0F30800704730B402460C060020640F81
:106CD000012501F01F03012C05FA03F308BF948975
:106CE00003D0022C0CBF148A948A090A128805FA70
:106CF00001F12340114030BC002B1CBF00290120B2
:106D00007047002818BF002901D0022A00D218E0DD
:106D1000C16000210160416082600020704702680C
:106D20008368521C9A42436828BF00229A4200D1CD
:106D300007E0C368D0F800C003F80C100260002020
:106D400070474FF0FF307047426803689A4200D1A5
:106D5000F7E74268C3689A5C0A704168491C416061
:106D600041688268914224BF002141600020704741
:106D70002DE9F8430646174684B088469946B80080
:106D800000F098FA05001AD0642000F093FA04008D
:106D900012D00D990C982563002203920191009066
:106DA00002944B463A464146304600F00DF82046E4
:106DB00000F057F8012004E0284600F0D2FA4FF026
:106DC000FF3005B0BDE8F0832DE9F8430A9E804608
:106DD0000C461746306B9946A522B90000F0DEFA42
:106DE000306B00EB8700071FFF08002106F134021B
:106DF00020781070207880B163785370607860B12B
:106E0000A3789370A07840B1E378D370E07820B194
:106E1000091D241D121D2029EAD3089D002086F893
:106E20005300062D099C88BF0625F562301D00F031
:106E3000DFFA06F11800002101613661C5F107058E
:106E4000B56106F15C0076620021016001714A467D
:106E50004146F80000F008FB306004B12660BDE850
:106E6000F18370B5044600F02AFBDFF8C453E86CE8
:106E7000401CE864A86AC8BBAC62E86C01283DD13C
:106E8000DFF8B063304600F0A6FA06F1140000F017
:106E9000A2FA06F1280000F09EFA06F13C0000F08C
:106EA0009AFA06F1500000F096FA06F1640000F03C
:106EB00092FA06F1780000F08EFA05F1740000F005
:106EC0008AFA05F18806304600F085FA284600F077
:106ED00082FA05F1140000F07EFA05F1380000F0A6
:106EE0007AFA05F17400E8622E6307E0A86D28B90C
:106EF000E16AA86AC26A914228BFAC62A86E401CCF
:106F0000A86660650122E06A696D82401143696587
:106F100000EB8003DFF81C23211D02EB830000F04F
:106F20006AFA00F0D8FAA86D68B1A96AC86AE16A7D
:106F3000884208D2DFF800134FF080500860BFF39A
:106F40004F8FBFF36F8F70BD80B50A46DFF8E01238
:106F50000B6F5B1C0B670B6D016852188B4203D2E1
:106F60008A4203D3026008E08A4201D39342F9D2F5
:106F700002600021D01A00F061F900F04EF840B92B
:106F8000DFF81C134FF080500860BFF34F8FBFF342
:106F90006F8F01BD80B550B1DFF894120A6F521C9B
:106FA0000A67002100F04AF900F037F840B9DFF82D
:106FB000F0124FF080500860BFF34F8FBFF36F8F18
:106FC00001BD3EB5DFF8DC420FF2E02104F19C0088
:106FD000019000250095002320220FF2D510FFF725
:106FE000C7FE012811D1BF2181F31188BFF34F8F54
:106FF000BFF36F8F4FF0FF30E0660120A06525657D
:1070000003B0BDE8304000F047BA03B030BDDFF850
:107010009402016F491C0167704770B500F04FFA88
:10702000DFF80C62306F401E30670024316F00259E
:1070300000293DD1F06CF8B93AE0F168CC6804F170
:10704000180000F0FEF9201D00F0FBF9E06A716DF8
:10705000012282401143716500EB8003DFF8482272
:10706000211D02EB830000F0C6F9E16AB06AC26A32
:10707000914224BF0121316630680028DDD10CB176
:1070800000F0C5F8F46D3CB100F018F808B101202B
:107090003066641EF8D1F565306E48B1DFF8000245
:1070A0004FF0805101250160BFF34F8FBFF36F8F09
:1070B000BAE0FFE7DFF8EC01006D7047F8B5DFF8E4
:1070C0007071386F0026002847D13C6D641C3C6508
:1070D00008D1F86A396BF9623863786E401C7866BB
:1070E00000F095F8F86E844228D31DE0281D00F0CA
:1070F000A8F9A86A18B105F1180000F0A2F9E86A29
:10710000796D012282401143796500EB8003DFF83D
:107110009821291D02EB830000F06DF9E96AB86A35
:10712000C26A914228BF0126F86A006890B1F96AE4
:10713000C868C56868688442D8D2F866B86ADFF85B
:107140006811C06A00EB800292008958022907D3B7
:10715000012605E04FF0FF30EFE7F86D401CF865C1
:10716000386E00B101263046F2BDDFF8C410086F5A
:1071700010B101220A66704708664A6DDFF82801DF
:10718000B2FA82F2524202EB820300EB830000F576
:107190001B7000F10803D0F804C0DCF80420426042
:1071A0009A4204BF526842604068C2688A6270476F
:1071B0002DE9F041DFF88040DFF87880DFF8E470F7
:1071C0004FF0805514E000F07AF9386AC668301D37
:1071D00000F037F9F86C401EF864786B401E786355
:1071E00000F079F9306B00F0BCF8304600F0B9F8E7
:1071F000786B0028E7D1D8F80010022904D3256065
:10720000BFF34F8FBFF36F8FC046C046F0E708490A
:10721000C86A006810B94FF0FF3203E0C86AC2685C
:10722000D0684268CA66704700F055F9284670BDBC
:10723000F42100202C23002004ED00E0F8B5194DC6
:107240002F6D0C46A96A0646081D00F0FAF830B901
:10725000A86A696DC06A012282409143696516F18E
:10726000010F08D13CB1A86A011D05F13800BDE845
:10727000F44000F0C0B8A86AF6194660BE42A86A99
:1072800005D2011D286BBDE8F44000F0C0B8011D17
:10729000E86A00F0BCF8E86E864238BFEE66F1BDE1
:1072A00004ED00E0F42100202C23002049444C454B
:1072B00000000000F8B50446FFF7A9FE364948690A
:1072C000002578B901F120024860D208D20041F2CD
:1072D000F8300A60C8608D60506001F108001060ED
:1072E000012048612CB3083414F0070F04D004F1D6
:1072F000080004F00704041BDCB141F2F8308442BA
:1073000017D20A680B465068A04216D210680028AF
:107310001CBF13460246F6D10FE033461E6877685D
:107320008742FAD31651101918600B6950681B1A5E
:107330000B61FFF772FE2846F2BD01F108008242A0
:10734000F7D0186816681E6000F108055068001B29
:107350001128EAD3131D1851101D54600B46005913
:10736000DCE738B5040016D0FFF751FEA4F10800A1
:10737000094A4168134600E023461C6865688D424F
:10738000FAD3046018601169406841181161BDE8C2
:107390003140FFF742BE31BD1000002062F30F22E2
:1073A00062F31F4200B500BF1300964694461039A1
:1073B00028BFA0E80C50FAD85FEA417C28BF0CC077
:1073C00048BF40F8042BC90728BF20F8022B48BF4C
:1073D00000F8012B00BD00F1080141604FF0FF31C2
:1073E000816000F10801C160016100210160704706
:1073F00000210161704742684A6093688B6093681E
:107400005960916008610168491C0160704730B49F
:107410000A6812F1010F08BF036907D000F10803E1
:1074200000E023465C682568AA42FAD25A684A609E
:1074300091608B60596008610168491C016030BC33
:1074400070474368016982689A60836842685A603D
:107450004A68824204BF82684A600022026108686A
:10746000401E08600868704749084900A0F10C03F5
:107470004FF0807C5960C3F808C00FF20D0119600D
:1074800040F8202D20387047BF2080F31188BFF3CB
:107490004F8FBFF36F8FFEE780B51D48016841F441
:1074A0007F010160026842F07F42026000F036F81E
:1074B00018490020086000F070F8002002BDBF20CD
:1074C00080F31188BFF34F8FBFF36F8F11480168AE
:1074D000491C016070470F490868401E086008BFDA
:1074E00080F31188704780B5BF2080F31188BFF307
:1074F0004F8FBFF36F8FFFF7E1FD18B106494FF0D3
:1075000080500860002181F3118801BD0000000057
:1075100020ED00E02814002004ED00E004480021E4
:10752000016081604BF67F31416007210160704747
:1075300010E000E0EFF30980BFF36F8F1D4B1A6876
:1075400020E9F00F106008B54FF0BF0080F31188FC
:10755000BFF34F8FBFF36F8FFFF707FE4FF00000B1
:1075600080F31188BDE8084019680868B0E8F00F9A
:1075700080F30988BFF36F8F70470E4B1968086856
:10758000B0E8F00F80F30988BFF36F8F4FF0000071
:1075900080F311884EF00D0E7047074800680068B0
:1075A00080F3088862B661B6BFF34F8FBFF36F8F69
:1075B00000DF00001C22002008ED00E0F8B5984C28
:1075C0000020E080A08097480178412904BF4278DC
:1075D000542A4FD181784B2901BFC278532A0179AF
:1075E0004B2947D142793F2A40D18F4D0FF2542089
:1075F000E9698E4E8847E9690FF260208847AA69D9
:107600000C21301D904785A7E96938468847E9690C
:107610000FF254208847AA69042130469047E9694F
:1076200038468847E9690FF250208847AA690C213B
:1076300006F138009047E96938468847E9690FF252
:1076400044208847AA690C2106F110009047E96997
:1076500038468847E9690FF23C208847AA690C211F
:1076600006F11C009047E9693846884700F09BF80E
:10767000607808B10021E180F1BD2DE9F0410646B6
:107680000C466B4F154698464FF4FA71384600F099
:1076900007F9412038702A465420787041464B2023
:1076A000B8705320F8704B203871A81CF871000492
:1076B000000E3872BE715F4E307878727078FC724E
:1076C000B872240A3C7307F10D00FEF7CFFC05F1F8
:1076D0000D0189B2384600F0E7F807F10D01485571
:1076E0000E357580BDE8F0812DE9F041804610002F
:1076F0000D464D4E4E4F4F4C04D04046FFF7BDFF58
:10770000618823E04FF4FA71384600F0C9F841204F
:10771000387087F80680542078700D214B20B8709F
:107720005320F8704B2038710220F8710020387215
:10773000207878726078FD72B8722D0A3D733846F1
:1077400000F0B2F878730E210E2060803846B269DE
:10775000BDE8F041104738B53349314D8A6AA81C5D
:1077600090470024012810D1E8882E4AB0F5FA7F0E
:10777000A8BFEC80E888A9781154401CE880FEF787
:10778000F3F8A8600120287001E0287848B1FEF7DE
:10779000EBF8A9680A31814203D22C70FFF70EFF83
:1077A0000124204632BD38B51E4CA079C1281CD01A
:1077B00033D3C32819D002D3C4281ED031BD1E4DE7
:1077C00005F1180300224CF2C771C220FFF78CFFAD
:1077D00001202875E07AA860207B2860607B2874EF
:1077E000A07B6874E07BE87431BD01B0BDE8304037
:1077F000124B00224CF2C77176E7104B00224CF27C
:10780000C771FFF771FFE07A012818BF002804D183
:107810000B494A68BDE83240104731BD0D0A0000EF
:10782000042500207C1C0020542400202C1800205B
:10783000701E00206C25002094220020AC22002025
:10784000102500200D0A0D0A494E464F20434F4D8A
:107850004D414E443A204F4B0D0A000050524F44C8
:107860005543543A2000000050524F445543542091
:1078700049443A20000000004841524457415245D3
:107880003A200000424F4F544C4F414445523A2059
:10789000000000004649524D574152453A20000031
:1078A0000022FFF77FBD000010B402460023002035
:1078B00012F8014B60405B1C9CB28C42F8D310BCA8
:1078C000C0B2704738B4414C012804EB830533D172
:1078D000C85C401E0A280BD8DFE800F00618060630
:1078E000060606061D222700A86A28B10221D154E7
:1078F000A86AB0F5C87F02D2A96A491CA962002013
:1079000002EB43012861A1F803002CE0A86A0A28D1
:10791000EED30921EBE7A86A6428E9D30A21E6E758
:10792000A86AC828E4D30B21E1E7A86AB0F5C87FAC
:10793000DED30C21D154E2E7A8B9C85C801E05D083
:10794000C01F03289CBF0220D05409E0A8626868C9
:1079500020B10121D154E869401CE8610121E154C2
:107960002869401C2861E15C012902D16868401C3B
:1079700068606868282814D3E869012805D1286957
:107980000A280AD80721D15407E0022808BF062098
:1079900002D0032801D10820D0540020E86168609B
:1079A000E0542869B0F5167F28BF052106D2C82803
:1079B00028BF042102D2642801D30321D15402EB51
:1079C0004301A1F8030031BC7047000020240020CF
:1079D00038B50D4604460020A17C012930D1E0686D
:1079E000401CE0602168B0FBF1F201FB120030BBEB
:1079F000E07C012809D10021E174207C6968884776
:107A0000A06878B1401EA0600CE0A06838B1401EAC
:107A1000A060A8688047C0F10100C0B200E0607CAF
:107A20006968884760682168884202D3401A6060AC
:107A300005E00020A07460606968607C88470120D0
:107A400032BD70B4059C0025012C1CBF847C002C29
:107A50000CD1049C039D426001268674016005746C
:107A6000491E83604474C674C1600125284670BCF9
:107A70007047000038B5584C0222052104F1180067
:107A800000F0CEF80222052104F1280000F0C8F829
:107A90000020607202220A2104F1380000F0C0F8D0
:107AA00002202070207360706073A070A0730222A7
:107AB0000A2104F1480000F0B3F802220A2104F17F
:107AC000580000F0ADF8FFF7F4FA009001204349A8
:107AD000434D087005216846FFF736FA01202870EB
:107AE00004F1180000F0BEF828B104F1180000F00D
:107AF000B3F800F00FF804F1280000F0B3F8002804
:107B0000E8D004F1280000F0A7F800F039F800F000
:107B100051F8DFE710B5304C04F1380000F0A2F85E
:107B200068B304F1380000F097F82E4801688847E0
:107B30000023224604F10C01FFF7C4FE2A48016825
:107B400088470123224604F10C01FFF7BBFE2748BA
:107B5000016888470223224604F10C01FFF7B2FEB8
:107B60000322214604F10C00FEF74CFA30B1032247
:107B7000214604F10C00FEF789FA0120607210BD65
:107B800010B5154C04F1480000F06CF888B104F110
:107B9000480000F061F816491648FFF719FF16492A
:107BA0001648FFF715FFBDE8104015491548FFF7C7
:107BB0000FBF10BD10B5084C04F1580000F052F88A
:107BC00048B104F1580000F047F8BDE810400E49F4
:107BD0000E48FFF7FDBE10BDB82300207825002019
:107BE00058190020402500204C2500205825002051
:107BF0001C2500209424002028250020A8240020F3
:107C000034250020BC2400201025002080240020E2
:107C1000FDF79EBEFDF7A8BEFDF7A9BE00F02EB889
:107C20004160012A027208BF07490AD0022A08BF30
:107C3000064906D0032A08BF054902D0042A01D10B
:107C40000449C16070470000117C0008157C0008E1
:107C5000197C00081D7C000810B50446E0688047C8
:107C6000206010BD10B50446E06880472168626856
:107C7000401A401C82428041C00F10BD02498888D2
:107C8000098840EA01407047182800401CB532209E
:107C9000FFF780F9304A314C01211170FFF709FAE2
:107CA000009001202E4908700A216846FFF74CF920
:107CB0000120207000F002F8F6E70000264800B529
:107CC0004178491E052983B040D8DFE801F0030759
:107CD0002E3833380178012938D133E00278012A6F
:107CE00008BF002135D0FFF736FD1E480178012975
:107CF0000FD1002202701C48C37C82680168029385
:107D0000437C007C0193009013464A431748FFF7D9
:107D100098FE174801884FF4C87203B0B1FBF2F027
:107D20005DF804EBC0B2FDF766BB0378012B11D1FF
:107D300000210EE00278012A08D1002109E0017833
:107D4000012907D10022027003B000BD0222427057
:107D50000121017003B000BD7625002059190020D3
:107D600079250020A82200209422002080240020D1
:107D7000742500201CB5FDF7B9F9FDF7DDF90420E5
:107D8000009000230A4C0FF234010A48019440226B
:107D9000FEF7EEFF201D02210190009100238022BA
:107DA0000FF228010448FEF7E3FFFFF70AF9FEE7A8
:107DB00064250020757A00088D7C0008494F5F4BD0
:107DC00045524E454C5F5441534B00004D41494E86
:107DD0005F555345525F5441534B00007047FEE7D7
:107DE000FEE7FEE7FEE77047704780B52020FEF70C
:107DF0008AFE50B12020FEF791FE20210E48FDF7AB
:107E0000E1FE10B90A49012008704FF48070FEF7B6
:107E10007AFE60B14FF48070FEF780FE4FF48071FF
:107E20000548FDF7CFFE10B902490120087001BDD9
:107E30007A2500207B250020000C014019E050F835
:107E4000042BD30744BFA9F101039A18091F00238B
:107E5000042942F8043BF9D25FEA817C134604D539
:107E60004FF0000CA2F800C09B1CC90744BF0021C2
:107E7000197050F8041B0029E1D1704730B5016832
:107E800084684218416802EB5103C9070BD54C4482
:107E900009E012F9011B12F8015B002904F8015BEB
:107EA00005D5491CF9D19A42F3D10C3030BD491E99
:107EB000F1D5F8E710B5074979441831064C7C44F0
:107EC000163404E00A68081D114488470146A1429F
:107ED000F8D110BD080000002400000061FFFFFF82
:107EE000200C00005C1900200000000091FFFFFF43
:107EF0002C0100009C010000000000200120C04671
:107F0000002801D0FFF7D6FFAFF300800020AFF3C9
:107F10000080FFF72FFF00F000F800F001B800002C
:107F20000746384600F002F8FBE70000202109036D
:107F300026311820ABBEF9E7AFF30080AFF3008025
:107F4000FFF7DCFF00480047397F0008FFF746BF16
:107F5000FFF745BFFFF744BFFFF743BFFFF742BF3F
:107F6000FFF70BBBFFF73FBFFFF7E4BAFFF7BBBA62
:107F7000FFF7FEBFFFF7FEBFFFF7FEBFFFF7FEBF35
:107F8000FFF7FEBFFFF7FEBFFFF72EBFFFF7FEBFF5
:107F9000FFF7FEBFFFF7FEBFFFF7FEBFFFF7FEBF15
:107FA000FFF7FEBFFFF7FEBFFFF7FEBFFFF7FEBF05
:107FB000FFF7FEBFFFF7FEBFFFF7FEBFFFF7FEBFF5
:107FC000FFF7FEBFFFF7FEBFFFF7FEBFFFF70DBFD6
:107FD000FFF7FEBFFFF7FEBFFFF7FEBFFFF7FEBFD5
:107FE000FDF778BCFFF7FEBFFFF7FEBFFFF7FEBF50
:107FF000FFF7FEBFFFF7FEBFFFF7FEBFFFF7FEBFB5
:10800000FFF7FEBFFEF709BDFFF7FEBFFFF7FEBF9C
:10801000FFF7FEBFFFF7FEBFFFF7FEBF0200C20182
:10802000F900000CEB0001F8138100810081008150
:108030000081008100810081008100810081008138
:108040000081008100810081008100810081008128
:108050000081008100810081008100810081008118
:108060000081008100810081008100810081008108
:10807000008100810081008100D200FCAA81008182
:1080800000810081008100810081008100F800FCF6
:1080900046224B534B5F4D616368696E6500424CED
:1080A0005F56322E352E302E330046575F56322E15
:1080B000352E322E35EF000A48575F56312E302EBE
:1080C000302E308100BA000F0102030401020304C4
:1080D0000607080902040608F8000E010203040658
:0A80E000070809006CDC020101FF33
:0400000508007F3937
:00000001FF
